{
  "contractName": "DogsUpdated",
  "abi": [
    {
      "constant": true,
      "inputs": [],
      "name": "ownerAddress",
      "outputs": [
        {
          "name": "",
          "type": "address"
        }
      ],
      "payable": false,
      "stateMutability": "view",
      "type": "function"
    },
    {
      "inputs": [],
      "payable": false,
      "stateMutability": "nonpayable",
      "type": "constructor"
    },
    {
      "constant": false,
      "inputs": [
        {
          "name": "_newOwner",
          "type": "address"
        }
      ],
      "name": "initialize",
      "outputs": [],
      "payable": false,
      "stateMutability": "nonpayable",
      "type": "function"
    },
    {
      "constant": true,
      "inputs": [],
      "name": "getNumberOfDogs",
      "outputs": [
        {
          "name": "",
          "type": "uint256"
        }
      ],
      "payable": false,
      "stateMutability": "view",
      "type": "function"
    },
    {
      "constant": false,
      "inputs": [
        {
          "name": "toSet",
          "type": "uint256"
        }
      ],
      "name": "setNumberOfDogs",
      "outputs": [],
      "payable": false,
      "stateMutability": "nonpayable",
      "type": "function"
    }
  ],
  "bytecode": "0x60806040526000600560146101000a81548160ff02191690831515021790555034801561002b57600080fd5b5061004433610049640100000000026401000000009004565b6100ca565b60001515600560149054906101000a900460ff16151514151561006b57600080fd5b80600560006101000a81548173ffffffffffffffffffffffffffffffffffffffff021916908373ffffffffffffffffffffffffffffffffffffffff1602179055506001600560146101000a81548160ff02191690831515021790555050565b610313806100d96000396000f300608060405260043610610062576000357c0100000000000000000000000000000000000000000000000000000000900463ffffffff16806314861b22146100675780631680a5ed146100945780638f84aa09146100bf578063c4d66de814610116575b600080fd5b34801561007357600080fd5b5061009260048036038101908080359060200190929190505050610159565b005b3480156100a057600080fd5b506100a96101fb565b6040518082815260200191505060405180910390f35b3480156100cb57600080fd5b506100d4610240565b604051808273ffffffffffffffffffffffffffffffffffffffff1673ffffffffffffffffffffffffffffffffffffffff16815260200191505060405180910390f35b34801561012257600080fd5b50610157600480360381019080803573ffffffffffffffffffffffffffffffffffffffff169060200190929190505050610266565b005b600560009054906101000a900473ffffffffffffffffffffffffffffffffffffffff1673ffffffffffffffffffffffffffffffffffffffff163373ffffffffffffffffffffffffffffffffffffffff161415156101b557600080fd5b80600060405180807f446f677300000000000000000000000000000000000000000000000000000000815250600401905090815260200160405180910390208190555050565b60008060405180807f446f6773000000000000000000000000000000000000000000000000000000008152506004019050908152602001604051809103902054905090565b600560009054906101000a900473ffffffffffffffffffffffffffffffffffffffff1681565b60001515600560149054906101000a900460ff16151514151561028857600080fd5b80600560006101000a81548173ffffffffffffffffffffffffffffffffffffffff021916908373ffffffffffffffffffffffffffffffffffffffff1602179055506001600560146101000a81548160ff021916908315150217905550505600a165627a7a72305820822f339ba3c83dc18438188152ad295f26b269b41a9d9d50cc8a08eeb79d5cc60029",
  "source": "pragma solidity ^0.4.2;\n// SPDX-License-Identifier: UNLICENSED\n//pragma abicoder v2;\n\nimport \"./Storage.sol\";\ncontract DogsUpdated is Storage{\n\n//adding another state variable here, that isn't already defined\n// in our storage contract, will corrupt the operation.\n//it'll attempt to write to the new var, in the proxy scope.\n// but it won't exist in proxy, so it'll overwrite something else\n\n//there is no one delegating calls to proxy, so it may be able to\n// have additional state var. \nmodifier onlyOwner{\n  require(msg.sender == ownerAddress);\n  _;\n}\n\nconstructor()public{\n  initialize(msg.sender);\n}\n\n/*\n in the future, if I wanted to upgrade my DogsUpdated state variables,\n I'd do so in the initialize function. and then delegateCall into that\n initialized function, in order to set up that initial state in the proxy\n scope.\n*/\n\nfunction initialize(address _newOwner)public {\n  require(initialized == false);\n  ownerAddress = _newOwner;\n  initialized = true;\n\n}\n\nfunction getNumberOfDogs()public view returns(uint){\n  return _uintStorage[\"Dogs\"];\n}\n\nfunction setNumberOfDogs(uint256 toSet)public onlyOwner{\n  _uintStorage[\"Dogs\"] = toSet;\n}\n\n\n\n\n\n}\n",
  "sourcePath": "/Users/achilles/Desktop/github/truffle/proxyContract/contracts/DogsUpdated.sol",
  "compiler": {
    "name": "solc",
    "version": "0.4.24+commit.e67f0147.Emscripten.clang"
  },
  "schemaVersion": "2.0.1",
  "updatedAt": "2022-03-02T03:40:10.402Z"
}