{
  "contractName": "Dogs",
  "abi": [
    {
      "constant": true,
      "inputs": [],
      "name": "ownerAddress",
      "outputs": [
        {
          "name": "",
          "type": "address"
        }
      ],
      "payable": false,
      "stateMutability": "view",
      "type": "function"
    },
    {
      "inputs": [],
      "payable": false,
      "stateMutability": "nonpayable",
      "type": "constructor"
    },
    {
      "constant": true,
      "inputs": [],
      "name": "getNumberOfDogs",
      "outputs": [
        {
          "name": "",
          "type": "uint256"
        }
      ],
      "payable": false,
      "stateMutability": "view",
      "type": "function"
    },
    {
      "constant": false,
      "inputs": [
        {
          "name": "toSet",
          "type": "uint256"
        }
      ],
      "name": "setNumberOfDogs",
      "outputs": [],
      "payable": false,
      "stateMutability": "nonpayable",
      "type": "function"
    }
  ],
  "bytecode": "0x60806040526000600560146101000a81548160ff02191690831515021790555034801561002b57600080fd5b5033600560006101000a81548173ffffffffffffffffffffffffffffffffffffffff021916908373ffffffffffffffffffffffffffffffffffffffff1602179055506101e88061007c6000396000f300608060405260043610610057576000357c0100000000000000000000000000000000000000000000000000000000900463ffffffff16806314861b221461005c5780631680a5ed146100895780638f84aa09146100b4575b600080fd5b34801561006857600080fd5b506100876004803603810190808035906020019092919050505061010b565b005b34801561009557600080fd5b5061009e610151565b6040518082815260200191505060405180910390f35b3480156100c057600080fd5b506100c9610196565b604051808273ffffffffffffffffffffffffffffffffffffffff1673ffffffffffffffffffffffffffffffffffffffff16815260200191505060405180910390f35b80600060405180807f446f677300000000000000000000000000000000000000000000000000000000815250600401905090815260200160405180910390208190555050565b60008060405180807f446f6773000000000000000000000000000000000000000000000000000000008152506004019050908152602001604051809103902054905090565b600560009054906101000a900473ffffffffffffffffffffffffffffffffffffffff16815600a165627a7a723058206d082ea44414a343ec74b64fc06f8de248bc7cc0e3f4e7258b6edee47966911a0029",
  "source": "pragma solidity ^0.4.2;\n// SPDX-License-Identifier: UNLICENSED\n//pragma abicoder v2;\n\nimport \"./Storage.sol\";\ncontract Dogs is Storage{\n\n\n\nmodifier onlyOwner{\n  require(msg.sender == ownerAddress);\n  _;\n}\n\nconstructor()public{\n  ownerAddress=msg.sender;\n}\n\nfunction getNumberOfDogs()public view returns(uint){\n  return _uintStorage[\"Dogs\"];\n}\n\nfunction setNumberOfDogs(uint256 toSet)public{\n  _uintStorage[\"Dogs\"] = toSet;\n}\n\n\n\n\n\n}\n",
  "sourcePath": "/Users/achilles/Desktop/github/truffle/proxyContract/contracts/Dogs.sol",
  "compiler": {
    "name": "solc",
    "version": "0.4.24+commit.e67f0147.Emscripten.clang"
  },
  "schemaVersion": "2.0.1",
  "updatedAt": "2022-02-24T01:03:10.428Z"
}