{
  "contractName": "Proxy",
  "abi": [
    {
      "constant": true,
      "inputs": [],
      "name": "ownerAddress",
      "outputs": [
        {
          "name": "",
          "type": "address"
        }
      ],
      "payable": false,
      "stateMutability": "view",
      "type": "function"
    },
    {
      "inputs": [
        {
          "name": "_currentAddress",
          "type": "address"
        }
      ],
      "payable": false,
      "stateMutability": "nonpayable",
      "type": "constructor"
    },
    {
      "payable": true,
      "stateMutability": "payable",
      "type": "fallback"
    },
    {
      "constant": false,
      "inputs": [
        {
          "name": "_newAddress",
          "type": "address"
        }
      ],
      "name": "upgrade",
      "outputs": [],
      "payable": false,
      "stateMutability": "nonpayable",
      "type": "function"
    }
  ],
  "bytecode": "0x60806040526000600560146101000a81548160ff02191690831515021790555034801561002b57600080fd5b506040516020806102fe8339810180604052810190808051906020019092919050505080600660006101000a81548173ffffffffffffffffffffffffffffffffffffffff021916908373ffffffffffffffffffffffffffffffffffffffff1602179055505061025f8061009f6000396000f30060806040526004361061004c576000357c0100000000000000000000000000000000000000000000000000000000900463ffffffff1680630900f0101461012f5780638f84aa0914610172575b60006060600660009054906101000a900473ffffffffffffffffffffffffffffffffffffffff169150600073ffffffffffffffffffffffffffffffffffffffff16600660009054906101000a900473ffffffffffffffffffffffffffffffffffffffff1673ffffffffffffffffffffffffffffffffffffffff16141515156100d357600080fd5b6000368080601f0160208091040260200160405190810160405280939291908181526020018383808284378201915050505050509050600080825160208401855af43d604051816000823e826000811461012b578282f35b8282fd5b34801561013b57600080fd5b50610170600480360381019080803573ffffffffffffffffffffffffffffffffffffffff1690602001909291905050506101c9565b005b34801561017e57600080fd5b5061018761020d565b604051808273ffffffffffffffffffffffffffffffffffffffff1673ffffffffffffffffffffffffffffffffffffffff16815260200191505060405180910390f35b80600660006101000a81548173ffffffffffffffffffffffffffffffffffffffff021916908373ffffffffffffffffffffffffffffffffffffffff16021790555050565b600560009054906101000a900473ffffffffffffffffffffffffffffffffffffffff16815600a165627a7a72305820dff87530785293c3006c23e14a266f5fce89b4bd0f38df79953ff55f4bd245d40029",
  "source": "pragma solidity ^0.4.2;\n// SPDX-License-Identifier: UNLICENSED\nimport \"./Storage.sol\";\n\ncontract Proxy is Storage{\n\n  // everything from here down to the\n  //fallback function is the same from\n  //DogsUpdated.\n  address currentAddress;\n\n  constructor(address _currentAddress){\n    currentAddress = _currentAddress;\n  }\n\n  function upgrade(address _newAddress)public {\n\n    currentAddress = _newAddress;\n\n}\n  //FALLBACK FUNCTION\n  function()payable external{\n    address implementation = currentAddress;\n    require(currentAddress != address(0));\n    bytes memory data = msg.data;\n\n  //DELEGATECALL EVERY FUNCTION CALL TO\n  // WHATEVER FUNCTIONAL SC IN OUR currentAddress\n  //using the functions of dogsUpdated but with the\n  //scope of the proxy state var. \n    assembly{\n      let result:= delegatecall(gas, implementation, add(data,0x20), mload(data), 0,0)\n      let size:= returndatasize\n      let ptr:= mload(0x40)\n      returndatacopy(ptr, 0, size)\n      switch result\n      case 0{revert (ptr,size)}\n      default\n      {return(ptr,size)}\n\n    }\n\n\n  }\n}\n",
  "sourcePath": "/Users/achilles/Desktop/github/truffle/proxyContract/contracts/Proxy.sol",
  "compiler": {
    "name": "solc",
    "version": "0.4.24+commit.e67f0147.Emscripten.clang"
  },
  "schemaVersion": "2.0.1",
  "updatedAt": "2022-03-02T03:40:10.401Z"
}