{
  "contractName": "Storage",
  "abi": [
    {
      "constant": true,
      "inputs": [],
      "name": "ownerAddress",
      "outputs": [
        {
          "name": "",
          "type": "address"
        }
      ],
      "payable": false,
      "stateMutability": "view",
      "type": "function"
    }
  ],
  "bytecode": "0x60806040526000600560146101000a81548160ff02191690831515021790555034801561002b57600080fd5b5060ea8061003a6000396000f300608060405260043610603f576000357c0100000000000000000000000000000000000000000000000000000000900463ffffffff1680638f84aa09146044575b600080fd5b348015604f57600080fd5b5060566098565b604051808273ffffffffffffffffffffffffffffffffffffffff1673ffffffffffffffffffffffffffffffffffffffff16815260200191505060405180910390f35b600560009054906101000a900473ffffffffffffffffffffffffffffffffffffffff16815600a165627a7a7230582068f221d88ec77a63e2062d429de023d608a5bd66395ab88975c50e7d9c05c40d0029",
  "source": "pragma solidity ^0.4.2;\n// SPDX-License-Identifier: UNLICENSED\n\ncontract Storage{\n\n  mapping(string => uint256) _uintStorage;\n  mapping(string => string) _stringStorage;\n  mapping(string => bool) _boolStorage;\n  mapping(string => bytes) _byteStorage;\n  mapping(string => address) _addressStorage;\n\n  address public ownerAddress;\n  bool initialized = false;\n\n\n\n}\n",
  "sourcePath": "/Users/achilles/Desktop/github/truffle/proxyContract/contracts/Storage.sol",
  "compiler": {
    "name": "solc",
    "version": "0.4.24+commit.e67f0147.Emscripten.clang"
  },
  "schemaVersion": "2.0.1",
  "updatedAt": "2022-03-02T03:40:10.399Z"
}